:060000000C9447000C9473
:1000060000000C9400000C9400000C9400000C946A
:1000160000000C9400000C9400000C9400000C945A
:1000260000000C9400000C9400000C9400000C944A
:1000360000000C9400000C9400000C9400000C943A
:1000460000000C9400000C9400000C9400000C942A
:1000560000000C9400000C9400000C9400000C941A
:100066000000FF00FCB3FCFF00FF00E2FB00000005
:10007600FF00C800FF00FFFFFF00020000036A0048
:10008600020003036E000000F894EE27EFBBF1E0D8
:10009600F5BFE5BF8DE0A2E0BB27ED938A95E9F7B2
:1000A60080E098E0A0E0B1E0ED930197E9F7E0E8A1
:1000B600F0E085919591009761F0A591B591059035
:1000C6001590BF01F00105900D920197E1F7FB0134
:1000D600F0CFE0E0EEBBEFEFEDBFE8E0EEBFC0E053
:1000E600D3E00C94B400AA93A881AF3F31F4E98120
:1000F600E8BDEA81E7BDEB8108C0A9815FD0E8BD14
:10010600AA815CD0E7BDAB8159D0E09388002496E4
:100116000895E2E2E4B9E0E6EAB9E1EAE4BDE1E045
:10012600E5BDE0E0E6BDE7BDE8BDE1E8E0938000BF
:10013600E1E0E0938100E0E0E0938500E093840055
:10014600E0938700E0938600E0938900E0938800BF
:10015600E0938B00E0938A00E0936E00E0936F00DB
:100166000895E0E8E0936100E0E0E0936100D1DF0C
:100176002D9AA4EFB1E00E940A012D98A4EFB1E0F8
:1001860028D0AFEF2ED0A0EC2CD0AFE72AD0A0E439
:1001960028D0A0E226D0A0E124D027D02CD0AFEFE3
:1001A60030D0A0EC2ED0AFE72CD0A0E42AD0A0E22D
:1001B60028D0A0E126D019D0DBCFFFCFBB27E8811E
:1001C600F0E00E942001DF01E0E0F1E00E9438014A
:1001D60008950E940A01E3E0F3E0A3E00E944B01C8
:1001E600089581DFACEDB5E0F4CFA0E07CDFACEDA7
:1001F600B5E00C940A01E0E0F3E0A3E00E944B01B5
:10020600089571DFACEDB5E00E940A01F4CF1096B7
:1002160039F080EA9FE00197F1F7A8951197C9F7A1
:100226000895F195E195F0400895FA9FF02DEB9F22
:10023600F00DEA9FE02DF10D08951CD0F6DF0EF4C7
:10024600F0DF08950024112490E1AA0FBB1F001CC3
:10025600111C0E1A1F0A18F40E0E1F1E01C0A160F3
:100266009A9599F7FD01D001089504D0EBDF0EF4BD
:10027600D8DF0895E894F7FF02C0D3DF6894B7FF8C
:1002860006C0A095B095119600F8039400FA08955B
:10029600BB27EA0FFB1F02900A921197E1F7089518
:00000001FF
