:100000000C944A000C9400000C9400000C94000026
:100010000C9400000C9400000C9400000C94000060
:100020000C9400000C9400000C9400000C94000050
:100030000C9400000C9400000C9400000C94000040
:100040000C9400000C9400000C9400000C94000030
:100050000C9400000C9400000C9400000C94000020
:100060000C9400000C940000FF00FCB3FCFF00FFA8
:1000700000E2FB000000FF00C800FF00FFFFFF00E0
:10008000020000036A00020003036E00030006037F
:1000900078000000F894EE27EFBBF1E0F5BFE5BF74
:1000A0008DE0A2E0BB27ED938A95E9F780E098E028
:1000B000A0E0B1E0ED930197E9F7E0E8F0E0859189
:1000C0009591009761F0A591B59105901590BF01AC
:1000D000F00105900D920197E1F7FB01F0CFE0E010
:1000E000EEBBEFEFEDBFE8E0EEBFC0E0D3E00C9475
:1000F000B300AA93A881AF3F31F4E981E8BDEA815A
:10010000E7BDEB8108C0A98169D0E8BDAA8166D0AE
:10011000E7BDAB8163D0E093880024960895E2E2C6
:10012000E4B9E0E6EAB9E1EAE4BDE1E0E5BDE0E03A
:10013000E6BDE7BDE8BDE1E8E0938000E1E0E093E3
:100140008100E0E0E0938500E0938400E093870085
:10015000E0938600E0938900E0938800E0938B00B1
:10016000E0938A000895E0E8E0936100E0E0E09326
:100170006100D5DF2D9AA4EFB1E00E9437012D98E0
:10018000A4EFB1E036D03DD034D040D032D043D00F
:1001900030D046D02ED049D02CD04CD02AD04FD001
:1001A00054D02FD058D032D056D035D054D038D0AB
:1001B00052D03BD050D03ED04ED041D04FD021D0A5
:1001C00053D024D051D027D04FD02AD04DD02DD0CD
:1001D0004BD030D049D033D0CDCFFFCFBB27E88133
:1001E000F0E00E944D01DF01E0E0F1E00E946501D6
:1001F00008950E943701E3E0F3E0A3E00E94780154
:100200000895AFEF76DFACEDB5E00895A0EC71DFB7
:10021000ACEDB5E00895AFE76CDFACEDB5E0089567
:10022000A0E467DFACEDB5E00895A0E262DFACEDDD
:10023000B5E00895A0E15DDFACEDB5E00895A0E084
:1002400058DFACEDB5E00C943701E0E0F3E0A3E05B
:100250000E94780108950E943701F7CFE6E0F3E0AD
:10026000A3E00E94780108950E943701F7CF10960D
:1002700039F080EA9FE00197F1F7A8951197C9F747
:100280000895F195E195F0400895FA9FF02DEB9FC8
:10029000F00DEA9FE02DF10D08951CD0F6DF0EF46D
:1002A000F0DF08950024112490E1AA0FBB1F001C69
:1002B000111C0E1A1F0A18F40E0E1F1E01C0A16099
:1002C0009A9599F7FD01D001089504D0EBDF0EF463
:1002D000D8DF0895E894F7FF02C0D3DF6894B7FF32
:1002E00006C0A095B095119600F8039400FA089501
:1002F000BB27EA0FFB1F02900A921197E1F70895BE
:00000001FF
