:040000000C944A0012
:100004000C9400000C9400000C9400000C9400006C
:100014000C9400000C9400000C9400000C9400005C
:100024000C9400000C9400000C9400000C9400004C
:100034000C9400000C9400000C9400000C9400003C
:100044000C9400000C9400000C9400000C9400002C
:100054000C9400000C9400000C9400000C9400001C
:100064000C940000FF00FCB3FCFF00FF00E2FB0067
:100074000000FF00C800FF00FFFFFF0002000003B4
:100084006A00020003036E00030006037800000008
:10009400F894EE27EFBBF1E0F5BFE5BF8DE0A2E0F9
:1000A400BB27ED938A95E9F780E098E0A0E0B1E002
:1000B400ED930197E9F7E0E8F0E0859195910097D9
:1000C40061F0A591B59105901590BF01F0010590DF
:1000D4000D920197E1F7FB01F0CFE0E0EEBBEFEF0B
:1000E400EDBFE8E0EEBFC0E0D3E00C94BA00AA9301
:1000F400A881AF3F31F4E981E8BDEA81E7BDEB8136
:1001040008C0A9816BD0E8BDAA8168D0E7BDAB81E6
:1001140065D0E093880024960895E0E8E0936100B8
:10012400E0E0E0936100E2E2E4B9E0E6EAB90895D0
:10013400E1EAE4BDE1E0E5BDE0E0E6BDE7BDE8BD40
:10014400E1E8E0938000E1E0E0938100E0E0E09307
:100154008500E0938400E0938700E0938600E093B9
:100164008900E0938800E0938B00E0938A0008956F
:10017400D4DFDEDF2D9AA4EFB1E00E9439012D987F
:10018400A4EFB1E036D03DD034D040D032D043D00B
:1001940030D046D02ED049D02CD04CD02AD04FD0FD
:1001A40054D02FD058D032D056D035D054D038D0A7
:1001B40052D03BD050D03ED04ED041D04FD021D0A1
:1001C40053D024D051D027D04FD02AD04DD02DD0C9
:1001D4004BD030D049D033D0CDCFFFCFBB27E8812F
:1001E400F0E00E944F01DF01E0E0F1E00E946701CE
:1001F40008950E943901E3E0F3E0A3E00E947A014C
:100204000895AFEF74DFACEDB5E00895A0EC6FDFB7
:10021400ACEDB5E00895AFE76ADFACEDB5E0089565
:10022400A0E465DFACEDB5E00895A0E260DFACEDDD
:10023400B5E00895A0E15BDFACEDB5E00895A0E082
:1002440056DFACEDB5E00C943901E0E0F3E0A3E057
:100254000E947A0108950E943901F7CFE6E0F3E0A5
:10026400A3E00E947A0108950E943901F7CF109605
:1002740039F080EA9FE00197F1F7A8951197C9F743
:100284000895F195E195F0400895FA9FF02DEB9FC4
:10029400F00DEA9FE02DF10D08951CD0F6DF0EF469
:1002A400F0DF08950024112490E1AA0FBB1F001C65
:1002B400111C0E1A1F0A18F40E0E1F1E01C0A16095
:1002C4009A9599F7FD01D001089504D0EBDF0EF45F
:1002D400D8DF0895E894F7FF02C0D3DF6894B7FF2E
:1002E40006C0A095B095119600F8039400FA0895FD
:1002F400BB27EA0FFB1F02900A921197E1F70895BA
:00000001FF
