:020000000C945E
:1000020055000C9400000C9400000C9400000C9419
:1000120000000C9400000C9400000C9400000C945E
:1000220000000C9400000C9400000C9400000C944E
:1000320000000C9400000C9400000C9400000C943E
:1000420000000C9400000C9400000C9400000C942E
:1000520000000C9400000C9400000C9400000C941E
:1000620000000C940000FF00FF80FCFF00FFBFFFB8
:1000720080FF0000FF000000FF00C800FF00FFFF3C
:10008200FF0000FFFF000080FF008000FF00020071
:1000920000036A00020003036E00030006037C00F3
:1000A2000300090384000000F894EE27EFBBF1E09F
:1000B200F5BFE5BF8DE0A2E0BB27ED938A95E9F796
:1000C20080E098E0A0E0B1E0ED930197E9F7E0E984
:1000D200F0E085919591009761F0A591B591059019
:1000E2001590BF01F00105900D920197E1F7FB0118
:1000F200F0CFE0E0EEBBEFEFEDBFE8E0EEBFC0E037
:10010200D3E00C94CC00AA93A881AF3F11F00C94D9
:100112009200E981E8BDEA81E7BDEB81E0938800C6
:100122000DC0A9810E944601E8BDAA810E94460134
:10013200E7BDAB810E944601E093880024960895B2
:10014200E0E8E0936100E0E0E0936100E2E2E4B91C
:10015200E0E6EAB90895E1EAE4BDE1E0E5BDE0E008
:10016200E6BDE7BDE8BDE1E8E0938000E1E0E093B1
:100172008100E0E0E0938500E0938400E093870053
:10018200E0938600E0938900E0938800E0938B007F
:10019200E0938A0008950E94A1000E94AC002D9A6B
:1001A200A4EFB1E00E94A0012D98A4EFB1E00E945B
:1001B20051010E9459010E9451010E945F010E9457
:1001C20051010E9465010E9451010E946B010E942F
:1001D20051010E9471010E9451010E9477010E9407
:1001E2007E010E9484010E947E010E9459010E94A8
:1001F2008B010E945F010E948B010E9465010E9497
:100202008B010E946B010E948B010E9471010E946E
:100212008B010E9477010E948E010E9484010E943C
:100222008E010E9459010E9494010E945F010E9466
:1002320094010E9465010E9494010E946B010E9438
:1002420094010E9471010E9494010E9477010E9410
:1002520097010E9484010E9497010E9459010E9405
:100262009D010E945F010E949D010E9465010E9402
:100272009D010E946B010E949D010E9471010E94DA
:100282009D010E9477018BCFFFCFBB27E881F0E071
:100292000E94B601DF01E0E0F1E00E94CE01089584
:1002A2000E94A001E3E0F3E0A3E00E94E1010895CF
:1002B200A0EC0E948400ACEDB5E00895AFE70E9487
:1002C2008400ACEDB5E00895A0E40E948400ACED9A
:1002D200B5E00895A0E20E948400ACEDB5E0089577
:1002E200A0E10E948400ACEDB5E00895A0E00E9478
:1002F2008400ACEDB5E00C94A001E0E0F3E0A3E0F3
:100302000E94E1010895AFEF0E948400ACEDB5E0D8
:100312000C94A0010E94A001F0CFE6E0F3E0A3E07C
:100322000E94E10108950E94A001F7CFE9E0F3E005
:10033200A3E00E94E10108950E94A001F7CF109668
:1003420039F080EA9FE00197F1F7A8951197C9F774
:100352000895F195E195F0400895FA9FF02DEB9FF5
:10036200F00DEA9FE02DF10D08951CD0F6DF0EF49A
:10037200F0DF08950024112490E1AA0FBB1F001C96
:10038200111C0E1A1F0A18F40E0E1F1E01C0A160C6
:100392009A9599F7FD01D001089504D0EBDF0EF490
:1003A200D8DF0895E894F7FF02C0D3DF6894B7FF5F
:1003B20006C0A095B095119600F8039400FA08952E
:1003C200BB27EA0FFB1F02900A921197E1F70895EB
:00000001FF
